:400000000080002011000000C5060000C506000008B5044B1A6803F53F5302331A6000F071FB00BFFA46004010B5054C237833B9044B13B10448AFF300800123237010BD75
:400040004881FF1F00000000CC170000084B10B51BB108490848AFF300800848036803B910BD074B002BFBD0BDE81040184700BF000000004C81FF1FCC170000C880FF1F3C
:400080000000000000000000F0B5ADF24C6D62B6002001F0F5FA01F091FA012303E001AA42F823300133B3F5C87FF8DD022311E001AA52F82320B2F1FF3F0AD05A0005E030
:4000C0004FF0FF3001A941F822001A44B2F5C87FF6DD013303FB03F2B2F5C87FE8DD00F021FC00F02DFC00F06BFD0021084600F075FD69E1013300E0002341F26F729342DB
:40010000F8D90131B1F5FA6FF6D3002000F020FC00F030FC80B200F079FFBFA3D3E9002301F004F90022BE4B00F0D6FF01F0E6F9074618B1602801D064280CD101F066FAEA
:40014000B84F87FB0037C317C3EB271707EB47077B01C71A0137012000F0E6FC0421002000F03CFDB8B200F057FD4FF47A7000F09DFD012000F0D8FC01AB53F82730B3F187
:40018000FF3F26D04FF47A7000F090FD012000F0CBFC0021084600F021FDA34800F0B2FC012000F06BFD41F2707000F07FFD002000F064FD14349D4800F0A4FCA0B200F01B
:4001C0002BFD4FF47A7000F071FD012000F0ACFC0DE0012000F0A8FC0421002000F0FEFC924800F08FFC0734A0B200F015FDB44200D92646012000F041FD4FF47A7000F037
:4002000055FD002000F03AFD4FF47A7000F04EFD312E00F2A280012000F086FC4FF47A7000F044FD824800F06DFC4FF4FA6000F03DFD002107E0013300E0002341F26F721C
:400240009342F8D90131B1F5FA6FF6D3002000F07FFB00F08FFB80B200F0D8FE6EA3D3E9002301F063F800226D4B00F035FF01F045F9074618B1602801D064280CD101F0A0
:40028000C5F9684F87FB0037C317C3EB271707EB47077B01C71A0137012000F045FC0421002000F09BFCB8B200F0B6FC4FF47A7000F0FCFC012000F037FC01AB53F82730A4
:4002C000B3F1FF3F2AD04FF47A7000F0EFFC012000F02AFC0021084600F080FC554800F011FC012000F0CAFC41F2707000F0DEFC002000F0C3FC0421012000F06FFC143501
:400300004D4800F0FFFBA8B200F086FC4FF47A7000F0CCFC012000F007FC0DE0012000F003FC0421002000F059FC434800F0EAFB0735A8B200F070FCB54200D92E464FF419
:400340007A7000F0B3FC012000F098FC4FF47A7000F0ACFC002000F091FC312E25D9AC4211D9012000F0E0FB0421012000F036FC324800F0C7FB41F2883000F097FC0120A9
:4003800000F0D2FB20E0012000F0CEFB0421012000F024FC2A4800F0B5FB41F2883000F085FC012000F0C0FB0EE0642000F07EFC012000F0B9FB234800F0A4FB4FF4FA60DE
:4003C00000F074FC00219DE60421002000F006FC1D4800F097FB0221012000F0FFFB134800F090FB002000F017FC202000F098FB114800F087FB002000F00EFC4FF47A70DF
:4004000000F054FC012000F08FFB002635463446CBE700BFAFF300800000000000E06F4000005940ABAAAA2AD0170000E4170000EC170000F81700000C180000141800009E
:40044000241800003418000040180000FEE700BFF0B40022174611E050F82760F3B226F0FF0608E001EB420511F812406D78A5550132013BDBB2002BF4D10137082FEBD9E1
:40048000F0BC704708B50A46002101F08EF808BDF8B5164B1B78DBB2154E3478E4B2154F3D78EDB203F00701134A11701B090132137044F00303337045F003033B7020232B
:4004C000A2F20272137040220C490A7002310A7002210B4A1170033213700A2000F0FCFB3D7034704422074B1A70F8BDCF010049F8460040F94600406E58004001590040D3
:40050000205B00407658004008B501F043F808BD38B5042227492848FFF7F6FF0222274B1A7008224FF040231A70032103F500731970234B1B78DBB222490B70224B1A805D
:4005400041F25122023B1A80002419250CE01F4B1B7803F0010343EA440404F003044FF4F07000F0F1FB013D0DB1032CEFD115B90320FFF76BFF164B4FF480721A80072238
:400580001A70002213490A704820023108701A700222033B1A7004220A331A700E4A137843F001031370013A137843F08003137038BD00BF5C00004800410040004300404B
:4005C00008010049A146004022420040254200400440004006400040A143004038B572B6274A137843F00403137000240CE0254D630019194A0011462A440846918828582E
:40060000FFF740FF0134E4B2072CF0D91E494FF09040FFF71DFF1D4A137843F0020313701032137843F002031370082218491948FFF76AFF082218491848FFF765FF082247
:4006400017491848FFF760FF082217491748FFF75BFF174A137843F008031370154C61232370FFF755FF812323700122124B1A70FFF70EFF0E2211491148FFF745FF38BD67
:40068000E84600404818000024000048035001403C0000480251004044000048125100404C000048225100405400004862510040224300400048004004000840A0430040B4
:4006C000B043004008B500F039FF03680C2B00D1FEE7FEE708B5094B1A681044084BC31A802B02DC054B186005E000F027FF0C2303604FF0FF32104608BD00BFCC80FF1FFC
:400700008081FF1F08B5104E104D16E029686B68AC68002204E051F8040B43F8040B0432A242F8D1E868002203E0002143F8041B04328242F9D11035013E002EE6D100F03C
:4007400003FFFFF7A1FCFEE701000000A018000008B5104A104B1A60104A136843F40073136000230AE0032B03D80D4A52F8231000E00C490C4A42F8231001332F2BF2D92D
:400780000A4B1A780A4B1A70074A0A4B1A60FFF725FF08BD0004FA050CED00E014ED00E000000000C50600000080FF1FBC760040C080FF1F08ED00E008B50A280FD00C28A7
:4007C00002D0082806D102E04FF4805209E04FF4807206E0002000F067FA002201E04FF480620021094B198042F2107303FB02F303F6C413064A82FB0302DB17C3EBE2238D
:40080000044A1360044B198008BD00BF7681FF1FAD8BDB687081FF1F7481FF1F10B500F09BFA04461E4A137843F0010313701032137843F0010313701A3A137843F00103FB
:4008400013701032137843F00103137002F5AA521232137843F0030313700422114B1A70013B1A7802F0BF021A701A7842F003021A700822053B1A700222A3F597530C3BA5
:400880001A70094A137843F0080313700A2000F023FA0122054B1A60204600F061FA10BDAB43004006590040275B004080E200E010B504460A280DD00C2802D0082804D173
:4008C00001E0C42207E0442205E0002000F0ECF9C42200E08422034B1A702046FFF76CFF10BD00BF0259004008B5102000F0D2F90721002000F00EFA0749002000F0F6F9A1
:40090000064A137843F0060313700820FFF7D0FF0022034B1A8008BD8D090000015900407881FF1F08B5054B1B7823B9FFF7DCFF0122024B1A70FFF771FF08BD6481FF1FA5
:40094000024A137843F00103137070470059004010B5074B1B7813F0010401D10028F8D024B1012000F0B8F9014B1B78204610BD01590040034B188880B2034B1B88C01AF4
:4009800000B27047A05B00407481FF1F704700BF10B50B4C237803F09F032370237803F0F00323702378184340F010002070012000F092F9237803F0EF03237010BD00BF16
:4009C0002051004038B505460E4C237843F020032370237803F0BF032370002000F07CF9237803F0F003237023781D4345F010052570012000F070F9237803F0EF0323704D
:400A000038BD00BF2051004070B5354B1A7802F08002D2B21A7033490A7802F0F00242F00F020A7001310A7802F0F0020A7001310A7802F0F0020A701A7802F0DF021A70E6
:400A40001A7842F040021A704FF4CA76002000F043F9234D2B7843F010032B70012000F03BF9214B1C78E4B22B7803F0EF032B70002000F031F904F00804E4B22B7843F07F
:400A800010032B70012000F027F92B7803F0EF032B7014B90A2000F01FF9013E0CB1002ED4D10F4A137803F0BF031370137803F08003DBB213700232137803F0F003137011
:400AC0000132137803F0F00343F00F0313700132137803F0F00343F00F03137070BD00BF20510040225100402151004010B50446FFF78AFF2009FFF765FF04F00F00FFF712
:400B000061FF10BD38B505460078012404E0FFF7EDFF285D0134E4B20028F8D138BD00BF08B5FFF7E3FF08BD10B50446FFF76CFF2009FFF72DFF04F00F00FFF729FF10BDF5
:400B400008B5282000F0B2F80320FFF721FF052000F0ACF80320FFF71BFF0F2000F0A6F80320FFF715FF012000F0A0F80220FFF70FFF052000F09AF80620FFF7D5FF0E2033
:400B8000FFF7D2FF2C20FFF7CFFF0820FFF7CCFF0120FFF7C9FF0C20FFF7C6FF0320FFF7C3FF052000F082F808BD00BF08B50C20FFF7BAFF0122014B1A7008BD6581FF1F67
:400BC00008B5054B5B7823B9FFF7BAFF0122024B5A70FFF7EBFF08BD6581FF1F08B5032819D8DFE800F002070D1381F08000FFF79BFF08BDA1F14000C0B2FFF795FF08BD15
:400C0000A1F16C00C0B2FFF78FFF08BDA1F12C00C0B2FFF789FF08BD10B584B000238DF80E30092211E0144BA3FB0013DB081C4603EB83035900431ADBB2303304A911441C
:400C400001F80C3C2046013AD2B20928EBD80A4BA3FB0013DB0803EB83035900431ADBB2303304A9114401F80C3C01AB9818FFF749FF04B010BD00BFCDCCCCCC044A1378F0
:400C800003F0F703C00000F0080018431070704760510040034B1A7800F0F80010431870704700BF0241004001BE704710B5044605E0084B186800F047F8A4F50044B4F57E
:400CC000004FF6D8034B586800FB04F000F03CF810BD00BFD080FF1F08B5034B1B7A00FB03F000F031F808BDD080FF1F70B504460E46074B1D681F2802D90020FFF7D4FF3D
:400D000004F01F04103455F8240045F8246070BD08ED00E038B504460D46072902D90020FFF7C2FF1F2C02D90020FFF7BDFF04F01F0000F1604000F564406D01EDB2057001
:400D400038BD00BF000000000230800803D000BF01380046FCD17047EFF3108072B6704780F31088704700BF81F0004102E000BF83F0004330B54FEA41044FEA430594EA33
:400D8000050F08BF90EA020F1FBF54EA000C55EA020C7FEA645C7FEA655C00F0E2804FEA5454D4EB5555B8BF6D420CDD2C4480EA020281EA030382EA000083EA010180EAC6
:400DC000020281EA0303362D88BF30BD11F0004F4FEA01314FF4801C4CEA113102D0404261EB410113F0004F4FEA03334CEA133302D0524263EB430394EA050F00F0A78013
:400E0000A4F10104D5F1200E0DDB02FA0EFC22FA05F2801841F1000103FA0EF2801843FA05F359410EE0A5F120050EF1200E012A03FA0EFC28BF4CF0020C43FA05F3C018AE
:400E400051EBE37101F0004507D54FF0000EDCF1000C7EEB00006EEB0101B1F5801F1BD3B1F5001F0CD349085FEA30004FEA3C0C04F101044FEA445212F5800F80F09A80DB
:400E8000BCF1004F08BF5FEA500C50F1000041EB045141EA050130BD5FEA4C0C404141EB010111F4801FA4F10104E9D191F0000F04BF01460020B1FA81F308BF2033A3F11B
:400EC0000B03B3F120020CDA0C3208DD02F1140CC2F10C0201FA0CF021FA02F10CE002F11402D8BFC2F1200C01FA02F120FA0CFCDCBF41EA0C019040E41AA2BF01EB04517E
:400F0000294330BD6FEA04041F3C1CDA0C340EDC04F11404C4F1200220FA04F001FA02F340EA030021FA04F345EA030130BDC4F10C04C4F1200220FA02F001FA04F340EA77
:400F40000300294630BD21FA04F0294630BD94F0000F83F4801306BF81F480110134013D4EE77FEA645C18BF7FEA655C29D094EA050F08BF90EA020F05D054EA000C04BFAE
:400F80001946104630BD91EA030F1EBF0021002030BD5FEA545C05D14000494128BF41F0004130BD14F580043CBF01F5801130BD01F0004545F0FE4141F470014FF000008D
:400FC00030BD7FEA645C1ABF194610467FEA655C1CBF0B46024650EA013406BF52EA033591EA030F41F4002130BD00BF90F0000F04BF0021704730B54FF4806404F1320417
:401000004FF000054FF0000150E700BF90F0000F04BF0021704730B54FF4806404F1320410F0004548BF40424FF000013EE700BF42004FEAE2014FEA31014FEA02701FBF91
:4010400012F07F4393F07F4F81F06051704792F0000F14BF93F07F4F704730B54FF4607401F0004521F0004120E700BF50EA010208BF704730B54FF000050AE050EA0102C1
:4010800008BF704730B511F0004502D5404261EB41014FF4806404F132045FEA915C3FF4DCAE4FF003025FEADC0C18BF03325FEADC0C18BF033202EBDC02C2F1200300FA02
:4010C00003FC20FA02F001FA03FE40EA0E0021FA02F11444C1E600BF70B54FF0FF0C4CF4E06C1CEA11541DBF1CEA135594EA0C0F95EA0C0F00F0DEF82C4481EA030621EA4D
:401100004C5123EA4C5350EA013518BF52EA033541F4801143F4801338D0A0FB02CE4FF00005E1FB02E506F00042E0FB03E54FF00006E1FB03569CF0000F18BF4EF0010E6D
:40114000A4F1FF04B6F5007F64F5407404D25FEA4E0E6D4146EB060642EAC62141EA55514FEAC52040EA5E504FEACE2EB4F1FD0C88BFBCF5E06F1ED8BEF1004F08BF5FEA32
:40118000500E50F1000041EB045170BD06F0004646EA010140EA020081EA0301B4EB5C04C2BFD4EB0C0541EA045170BD41F480114FF0000E013C00F3AB8014F1360FDEBF87
:4011C000002001F0004170BDC4F10004203C35DA0C341BDC04F11404C4F1200500FA05F320FA04F001FA05F240EA020001F0004221F0004110EBD37021FA04F642EB060104
:401200005EEA430E08BF20EAD37070BDC4F10C04C4F1200500FA04F320FA05F001FA04F240EA020001F0004110EBD37041F100015EEA430E08BF20EAD37070BDC4F12005C1
:4012400000FA05F24EEA020E20FA04F301FA05F243EA020321FA04F001F0004121FA04F220EA020000EBD3705EEA430E08BF20EAD37070BD94F0000F0FD101F000464000B0
:4012800041EB010111F4801F08BF013CF7D041EA060195F0000F18BF704703F00046520043EB030313F4801F08BF013DF7D043EA0603704794EA0C0F0CEA135518BF95EAD2
:4012C0000C0F0CD050EA410618BF52EA4306D1D181EA030101F000414FF0000070BD50EA410606BF1046194652EA430619D094EA0C0F02D150EA013613D195EA0C0F05D1D1
:4013000052EA03361CBF104619460AD181EA030101F0004141F0FE4141F470014FF0000070BD41F0FE4141F4780170BD70B54FF0FF0C4CF4E06C1CEA11541DBF1CEA1355AF
:4013400094EA0C0F95EA0C0F00F0A7F8A4EB050481EA030E52EA03354FEA013100F088804FEA03334FF0805545EA131343EA12634FEA022245EA111545EA10654FEA002691
:401380000EF000419D4208BF964244F1FD0404F5407402D25B084FEA3202B61A65EB03055B084FEA32024FF480104FF4002CB6EB020E75EB030E22BFB61A754640EA0C00EB
:4013C0005B084FEA3202B6EB020E75EB030E22BFB61A754640EA5C005B084FEA3202B6EB020E75EB030E22BFB61A754640EA9C005B084FEA3202B6EB020E75EB030E22BF12
:40140000B61A754640EADC0055EA060E18D04FEA051545EA16754FEA06164FEAC30343EA52734FEAC2025FEA1C1CC0D111F4801F0BD141EA00014FF000004FF0004CB6E76B
:4014400011F4801F04BF01430020B4F1FD0C88BFBCF5E06F3FF6AFAEB5EB030C04BFB6EB020C5FEA500C50F1000041EB045170BD0EF0004E4EEA113114EB5C04C2BFD4EB00
:401480000C0541EA045170BD41F480114FF0000E013C90E645EA060E8DE60CEA135594EA0C0F08BF95EA0C0F3FF43BAF94EA0C0F0AD150EA01347FF434AF95EA0C0F7FF437
:4014C00025AF104619462CE795EA0C0F06D152EA03353FF4FDAE1046194622E750EA410618BF52EA43067FF4C5AE50EA41047FF40DAF52EA43057FF4EBAE12E74A0011D2A8
:4015000012F5001211D20DD56FF47873B3EB62520ED44FEAC12343F0004343EA505323FA02F070474FF00000704750EA013002D14FF0FF3070474FF000007047014B186807
:40154000704700BF4081FF1F0E4B70B51E460E4C0025E41AA410A54204D056F8253098470135F8E700F08AF9084B094C1E46E41AA4100025A54204D056F8253098470135E8
:40158000F8E770BD8818000088180000881800009018000010B5431E0A44914204D011F8014B03F8014FF8E710BD03460244934202D003F8011BFAE77047000038B5124B01
:4015C00005461C68A36BD3B9182000F07FF843F20E33A06303804AF6CD33438041F2342383804EF26D63C3804DF6EC630381052343810B23838101220023C0E90423A36BAC
:4016000000221D615A6138BD4081FF1F194B10B51C68A36BD3B9182000F058F843F20E33A06303804AF6CD33438041F2342383804EF26D63C3804DF6EC63038105234381DB
:401640000B23838101220023C0E90423A16B0A4C0B6948695C43094A02FB0040A3FB02230132034443F10003C1E9042323F0004010BD00BF4081FF1F2DF451582D7F954C12
:4016800013B5084B044600221868694600F00CF80028BCBF4FF0FF330093009804B1206002B010BD4081FF1F38B5074C0023054608461146236000F081F8431C02D12368B2
:4016C00003B12B6038BD00BF7C81FF1F024B0146186800F003B800BF4081FF1F70B5CD1C25F0030508350C2D38BF0C25002D064601DBA94202D90C23336046E000F05CF86F
:40170000234B1C681A462146A1B10B685B1B0ED40B2B03D90B60CC18CD501EE08C420BBF63684B681360636018BF0C4615E00C464968E9E7174C23681BB9304600F02CF8CE
:4017400020602946304600F027F8431C18D0C41C24F00304A0420DD12560304600F02DF804F10B00231D20F00700C31A0ED05A42E25070BD211A304600F00EF80130EBD142
:401780000C233360304600F018F8002070BD00BF6C81FF1F6881FF1F38B5064C0023054608462360FEF796FF431C02D1236803B12B6038BD7C81FF1F70477047024B58228A
:4017C0001A604FF0FF3070477C81FF1F000000004D4153544552204D4F56453A205031212100000050313A20000000005455524E3A205032200000004D4153544552204D96
:401800004F56453A205032212100000050323A200000000057696E6E65723A205031203A2929000057696E6E65723A205032203A292900005455524E3A205031200000008B
:4018400057656C636F6D6500305100403000C05100401000F0510040100000000140001000140140000800400140000A004C0140000200500140200043000000F8B500BF91
:40188000F8BC08BC9E4670474D00000051070000F8B500BFF8BC08BC9E46704729000000B0180000C880FF1F8000000038000000000000008081FF1F0000E02EC05D000098
:4018C0001800000000366E0100000000000000000000000000000000000000000000000000000000000000007818000000000000000000000000000000000000000000009B
:4019000000000000000000000000000000000000000000000000000000000000000000000000000000000000E080FF1F000000000000000000000000000000000000000029
:401940000000000000000000000000000000000000000000000000000000000000000000000000000000000000000000000000000000000000000000000000000000000067
:401980000000000000000000000000000000000000000000000000000000000000000000000000000000000000000000000000000000000000000000000000000000000027
:4019C00000000000000000000000000000000000000000000000000000000000000000000000000000000000000000000000000000000000000000000000000000000000E7
:401A000000000000000000000000000000000000000000000000000000000000000000000000000000000000000000000000000000000000000000000000000000000000A6
:020000040003F7
:0200000480007A
:40000000010701400109014002400140014101400142014002430140024601400147014001510140EE04EE043320CC10A720A720AB20EE201B04C608AB040003000000005E
:4000400000001000000B0B0000000000007F7F0000000000000808000000200002001801000000000000000000000000000000000000000000000000000000000000000011
:400080000000000000000000000000000000000000000000000000000000000000000000000000000000000000000000000000000000000000000000000000000000000040
:4000C0000000000000000000000000000000000000000000000000000000000000000000000000000000000000000000000000000000000000000000000000000000000000
:4001000000000000000000000000000000000000000000000000000000000000000000000000000000000000000000000000000000000000000000000000000000000000BF
:40014000000000000000000000000000000000000000000000000000000000000000000000000000000000000000000000000000000000000000000000000000000000007F
:0200000490006A
:0400000000004005B7
:0200000490105A
:04000000BC90ACAF55
:0200000490303A
:02000000B51039
:0200000490402A
:4000000000000000000000000000000000000000000000000000000000000000000000000000000000000000000000000000000000000000000000000000000000000000C0
:400040000000000000000000000000000000000000000000000000000000000000000000000000000000000000000000000000000000000000000000000000000000000080
:400080000000000000000000000000000000000000000000000000000000000000000000000000000000000000000000000000000000000000000000000000000000000040
:4000C0000000000000000000000000000000000000000000000000000000000000000000000000000000000000000000000000000000000000000000000000000000000000
:0200000490501A
:0C00000000012E12306900012E1BE57972
:00000001FF