:4000000000800020110000000D0400000D04000008B5044B1A6803F53F5302331A6000F0FDF900BFFA46004010B5054C237833B9044B13B10448AFF300800123237010BD5F
:400040007081FF1F00000000441E0000084B10B51BB108490848AFF300800848036803B910BD074B002BFBD0BDE81040184700BF000000007481FF1F441E0000C880FF1FEE
:400080000000000008B53349334801F0D0FE60BB012001F0BBFD0021084601F011FE2F4801F0A2FD012001F029FE012001F032FE0021012001F004FE294801F095FD4FF48B
:4000C000FA6000F007FA012001F0A0FD0021084601F0F6FD234801F087FD0021012001F0EFFD214801F080FD08BD012001F08EFD0021084601F0E4FD1C4801F075FD012052
:4001000001F0FCFD002001F005FE4FF4FA6000F0E1F9012001F07AFD0021084601F0D0FD134801F061FD4FF4FA6000F0D3F9012001F06CFD0021084601F0C2FD0D4801F0C1
:4001400053FD0021012001F0BBFD0B4801F04CFD08BD00BFCC80FF1F8C81FF1F481E0000D480FF1F581E00006C1E00007C1E0000901E0000A01E0000B41E000070B562B6B1
:400180000021084600F026FB01F08CFD354600F05FFB20B100F056FB08B100F077FC00F051FB0028F3D000F0D1FC0028EFD000F0E5FC04466E1C0B4B585501F023FD232C7F
:4001C00005D10025074B9D55FFF75CFF2E46002CDCD000F0C7FC0028FBD0204600F0A2FCD4E700BF8C81FF1FFEE700BFF0B40022174611E050F82760F3B226F0FF0608E0B5
:4002000001EB420511F812406D78A5550132013BDBB2002BF4D101370B2FEBD9F0BC7047064B1B78DBB203F00701054A11701B09013213704422034B1A707047CF010049A8
:400240006E5800407658004008B50A46002101F0E6FD08BD38B50622284B1A7043F21332EE3B1A80023B05221A701B7843F2C82404E04FF4F07001F05BFD013C24B1204B65
:400280001B7813F0800FF4D152221E4B1A701E4B1B78DBB21D4A13704FF4E1621C4B1A8041F25122023B1A80002419250CE0194B1B7803F0010343EA440404F003044FF487
:4002C000F07001F035FD013D0DB1032CEFD115B90320FFF789FF104A4FF4807313800723137000230D490B7048200231087013700532137002220A4B1A7038BD0043004092
:4003000010420040004200400F010049A1460040224200402542004004400040064000400140004008B501F06FFD08BD38B572B6264A137843F00403137000240CE0244D26
:40034000630019194A0011462A44084691882858FFF77AFF0134E4B2072CF0D91D494FF09040FFF743FF1C4A137843F0020313701032137843F0020313700A2217491848EF
:40038000FFF7D0FF082217491748FFF7CBFF082216491748FFF7C6FF082216491648FFF7C1FF164A137843F008031370144C61232370FFF74FFF81232370FFF731FF0E229B
:4003C00010491148FFF7AEFF38BD00BFE8460040D01E000030000048035001406C000048F05100407800004812510040800000482251004088000048625100402243004011
:4004000000480040A0430040B043004008B501F0CFFC03680C2B00D1FEE7FEE708B5104E104D16E029686B68AC68002204E051F8040B43F8040B0432A242F8D1E868002245
:4004400003E0002143F8041B04328242F9D11035013E002EE6D101F0B1FCFFF78FFEFEE7010000009820000008B5104A104B1A60104A136843F40073136000230AE0032B19
:4004800003D80D4A52F8231000E00C490C4A42F8231001332F2BF2D90A4B1A780A4B1A70074A0A4B1A60FFF741FF08BD0004FA050CED00E014ED00E0000000000D0400008D
:4004C0000080FF1FBC760040C080FF1F08ED00E001BE704710B5044605E0084B186801F027FCA4F50044B4F5004FF6D8034B586800FB04F001F01CFC10BD00BFDC80FF1FB9
:4005000008B5034B1B7A00FB03F001F011FC08BDDC80FF1F70B504460E46074B1D681F2802D90020FFF7D4FF04F01F04103455F8240045F8246070BD08ED00E038B5044685
:400540000D46072902D90020FFF7C2FF1F2C02D90020FFF7BDFF04F01F0000F1604000F564406D01EDB2057038BD00BF134B1B78DBB20360124A127843EA02230360114A04
:40058000127843EA024303600F4A127843EA026303600E4B1B78DBB243600D4A127843EA022343600B4A127843EA024343600A4A127843EA02634360704700BF0301004948
:4005C00004010049EC4600400201004901010049000100490501004906010049F8B501F0AFFB0746404A137843F0010313701032137843F00103137001263C4B1E7002256D
:40060000943B1D7002F5E2521B32137803F07F0313700020FFF774FF354C237803F0F9032370344A137803F0DF0313702378334323703046FFF764FF2820FFF761FF2E4B51
:400640001A7802F07F021A701A7802F0BF021A7023782B4323702846FFF752FF237843F0040323700024254B1C7001331C70384601F06AFB07211720FFF760FF204917205B
:40068000FFF748FF07211820FFF758FF1D491820FFF740FF07211520FFF750FF1A491520FFF738FF07212046FFF748FF17492046FFF730FF07213046FFF740FF14493046BA
:4006C000FFF728FF07212846FFF738FF11492846FFF720FF07210C20FFF730FF0E490C20FFF718FFF8BD00BFA54300409D6000409443004012600040F851004084600040E5
:400700000D110000F50E0000091100006910000099100000CD1000001511000008B5214B18700023204A1370204A1370204A1370204A1370204A1370204A1370204A13700A
:40074000204B4FF400021A604FF080721A604FF400121A6001221A6002221A6004221A6011B1012906D00BE0174A137803F0FE0313700AE0144A137843F00103137004E079
:40078000114A137843F00103137003220F4B1A708022203B1A70012001F0CAFA04220C4B1A7008BDB181FF1FB481FF1FD081FF1FD381FF1FC881FF1FD281FF1FD581FF1F97
:4007C000B081FF1F00E100E009600040286000401260004038B504460D46064B1B7823B9FFF7FCFE0122034B1A7029462046FFF795FF38BD9281FF1F00230A4A13700A4ABE
:4008000013700A4A13700A4A13700A4A13700A4A13700A4A13700322094B1A708022203B1A707047B481FF1FD081FF1FD381FF1FC881FF1FD281FF1FD581FF1FB081FF1FF2
:4008400028600040014B1878704700BFD381FF1F064B1B7813F0FF0F05D0044B1878C0B200221A7070470020704700BFD081FF1F00EB40008300024A13445878704700BFD2
:40088000D881FF1F431EDBB2072B0BD8064B00011A18185C00F00F00537843EA0020023880B2704700207047FC5F0040431EDBB2072B3CD8F0B4074600EB4004A3001C4CBB
:4008C0002344DB889BB2C3F500739A4208D900EB400293002344DA8892B2C2F5007292B200EB4004A300124C2344DB7843EA1223104D04012E192B55D3B2737039B909E007
:40090000CE5C3D010C4C665501339BB200E000239A42F5D8420002449300054A134400225A705A79D2B20001044B1A54F0BC7047D881FF1FFC5F004078600040FE5F004023
:40094000431EDBB2072B0BD8420002449300054A134400225A705A79D2B20001024B1A54704700BFD881FF1FFE5F004070B5D9B1054614460E46C8B1082819D8FFF782FF71
:40098000A04203D22846FFF77DFF0446002305E02901094A525CF25401339BB2A342F7D32846FFF7CDFF04E0002402E0002400E00024204670BD00BF7860004010B4FF241A
:4009C00000230EE0094AD25C02EB42029100084A11448A7AD2B2824201D11C4602230133DBB2012BEED9204610BC7047A081FF1FD881FF1F10B5204C2079FFF7DFFF2378CB
:400A000013F0800F0ED06378DBB2212B2FD11B4B07221A80C0EBC000194A1044586000F0D7FA10BD144B5B78DBB2202B02D0222B10D01EE0114A07231380C0EBC00310491B
:400A40000B4453600F4A135C43F00103135400F0E7FA10BD084B9B780B4A22F81030094A135C43F00203135400F070F910BD002010BD002010BD00BF00600040BC81FF1F40
:400A8000EC80FF1F9881FF1FAC81FF1F10B500241F4B1C701F4B1C705C700AE01E4B185DC0B2431EDBB2072B01D8FFF749FF0134E4B2012CF2D9194B1B7813F0FF0F1AD063
:400AC000154B1B7813F0FF0F17D0154B1B7813F0FF0F14D0114B1B78DBB2082B11D80E4B1B78DBB2082B0ED80D4B1B78DBB2082B0BD8002010BD012010BD012010BD012081
:400B000010BD012010BD012010BD012010BD00BF9381FF1F9881FF1FA481FF1F9C81FF1FA081FF1F00B583B002A901F8010D054B1B78054AD05C0122FFF7B8FE03B05DF86A
:400B400004FB00BF9381FF1F9C81FF1F08B5034B1B78034AD05CFFF78BFE08BD9381FF1FA481FF1F08B5034B1B78034AD05CFFF77FFE08BD9381FF1F9C81FF1F00B583B0D6
:400B8000064B1B78064AD05C01220DF10701FFF7EDFE9DF8070003B05DF804FB9381FF1FA481FF1FC37803F0030390F9020000280FDA032B06D002F001030B48C15442F04F
:400BC00001020EE0C2F380030848C15442F0040207E0032B05D0C2F340030548C15442F002021046704700BF9C81FF1FA081FF1FA481FF1F1D4B19781D4A13889BB20B4495
:400C00009BB2138000220FE01A494B681B78DBB2194883544B6801334B600132D2B20B889BB2013B9BB20B80124B1B889BB20BB1072AE9D90D4B1B78DBB2082B00D05AB196
:400C40000E490B7883F080030B700F210C4B197002210C4B197004E0022309490B7009490B70094B1A70014B1A707047B081FF1FB281FF1FBC81FF1F006000404682FF1F87
:400C8000D181FF1FB481FF1FD481FF1F0222074B1A708022064B1A700F22064B1A700023054A1370054A137001207047B481FF1F4682FF1FD181FF1FB081FF1FD481FF1F6B
:400CC00008B5FFF797FF08BD10B4194B197801F00F010239C9B2174A13889BB20B449BB21380002011E0144A5468144B1B5CDBB223705368013353600130C0B20139C9B2E3
:400D000013889BB2013B9BB213800B4B1B889BB20BB10029E7D10A4B19700A4A137883F0800313700B22084B1A7010BC704700BF29600040B281FF1FBC81FF1F0060004035
:400D4000D481FF1F4682FF1FD181FF1F0623064A1370064A13708022054B1A700022054B1A700120704700BFB481FF1FD181FF1F4682FF1FD481FF1F064B9B6843B1054B18
:400D80009A6810709A6804490988518000229A60704700BFBC81FF1FB281FF1F08B5134B1A78D2B21A701B78DBB213F0800F02D00F4A137008BD0220FFF7DEFF0D4B1B7802
:400DC00003F06003202B05D0402B06D043B900F093FC06E000F0BCFF03E000F037FE00E0002010B90322024B1A7008BD28600040D181FF1F0060004008B5094B1978094AD1
:400E000013889BB20B449BB213800022064B1A700120FFF7B1FF0322044B1A7008BD00BFB081FF1FB281FF1FB481FF1FD181FF1F08B50B4B1B78DBB2042B06D0062B07D0B2
:400E4000022B0BD1FFF7D8FF08BDFFF73DFF08BD0320FFF791FF0322024B1A7008BD00BFB481FF1FD181FF1F08B50022044B1A700120FFF781FF0322024B1A7008BD00BF25
:400E8000B481FF1FD181FF1F08B50B4B1B7813F0FF0F07D0084A137843F0800307490B70002313700022064B1A700120FFF764FF0322044B1A7008BDD281FF1F086000408A
:400EC000B481FF1FD181FF1F08B5094B1B78DBB2042B06D0062B07D0022B07D1FFF7F0FE08BDFFF7C1FF08BDFFF7CEFF08BD00BFB481FF1F08B5284B1B78DBB213F0100FBC
:400F000048D013F0800F0CD003F00F03012B16D1FFF744FF214B1B7813F0800F11D1012312E013F0400F03D0FFF7CEFF01230BE013F0200F07D0FFF77BFF012304E00023B6
:400F400002E0002300E0002323B3134B1B7813F0800F1FD1124B1B78124A12781343124A13701278D2B2934214D10C4B1B78DBB2094A127812F0800F07D1084B1B78DBB21D
:400F8000054A1370137803F00F03044A1278D2B29342EAD108BD00BF28600040D181FF1F4682FF1FD481FF1F296000400022064B1A80064B9B682BB1044A916800230B70E3
:400FC00092685380704700BFB281FF1FBC81FF1F08B50F4B1B889BB213B9FFF757FE15E002220C4B1A7000220B4B1A70FFF7DEFF0A4AD179937943EA0123054A128892B2ED
:40100000934201D2024A1380FFF7F4FD012008BDBC81FF1FB481FF1F4682FF1F0060004008B504220B4B1A7080220B4B1A70FFF7BDFF0A4AD179937943EA0123084A12884A
:4010400092B2934201D2064A13800B22054B1A70012008BDB481FF1F4682FF1F00600040BC81FF1FD181FF1F0122094B1A700F3B9B7C084B1B7B03F00303934204D0054AD4
:40108000D37B83F08003D3730122024B5A7370470B600040D881FF1F02220A4B1A700F3B93F82230084B1B7E03F00303012B04D0054AD37E83F08003D3760122024B5A7662
:4010C000704700BF0B600040D881FF1F04220C4B1A700F3B93F832300A4B93F8243003F00303012B06D0074A92F8273083F0800382F827300122034B83F82520704700BF4B
:401100000B600040D881FF1F704700BF08B5FFF773FB08BD08B500F0A5FC08BD70B588B0054603AC174E0FCE0FC43368237035B322232B7003236B7001A8FFF717FA0024E7
:4011400002231AE008AA224412F81C2C08A901EB121111F8141CE954581C00212954981C02F00F0208AE324412F8142C2A54DA1CA9540134E4B20433DBB2212BE2D908B0B2
:4011800070BD00BF001F000010B401233EE019461A010C242148845403EB4300820020480244527912F0FF0F13D003EB430082001B480244127912F0800F04D01801194A4C
:4011C000024494700AE01801164A02440820907004E01801134A0244802090704800084482000F480244D488E4B208010B4901448C71D088C0F30720C871D088C0B20871A2
:40120000D288C2F307224A710133DBB2082BBED9FF22054B1A7010BC704700BF70600040D881FF1FFC5F00400A600040074B1A78074B03EBC2035B681A7C824204D9C00084
:40124000103018444068704700207047B181FF1F141F0000F8B5404B1B7813F0FF0F79D03D4B18780138C0B2FFF7E0FF047AC2683A4B1878C0B200236AE01178884264D138
:401280003749095CC9B25578A9425ED1917801F07F01D67806F00306DFF8C8E04D000D44AF000EEB07054FF0000C85F803C092F802C085F804C092F803C00EF807C09788FE
:4012C0002F8192F90250002D0DDA012E01D1072700E00D274E000E44B500224E35446F7101266E700CE0012E01D1052700E009274E000E44B5001B4E35446F7100266E70A3
:40130000DFF868E00F010EEB07060125B57001FA05F529448D00134929440D89C5F307250EF807500D89EDB27570CE88F6B20E4D3D44AE71CE88C6F30726EE71CE88F6B2F2
:401340002E71C988C1F30721697108320133DBB2A34292D3F8BD00BFD381FF1FC881FF1F4482FF1FD881FF1F70600040FC5F0040034B1A78034B03EBC2035868704700BF18
:40138000B181FF1F141F000008B5084B18780138C0B2FFF74BFF30B142681279023200EBC203586808BD002008BD00BFD381FF1F2DE9F047002310E0724D5900CA1896009A
:4013C000AC190022AA55A270E2702281A272627034462C4462710133DBB2082BECD940B90AE000226849CA546849CA540133DBB200E00023012BF4D9654B1B7813F0FF0FF0
:4014000000F0BD80624B18780138C0B2FFF70EFF80464368DB7913F0400F05D05D4A137843F00103137004E05A4A137803F0FE03137098F808704FF0000A01266FE0D8F89B
:401440000C50002467E0AB7803F07F039E425FD1314606EB460083004A4803441B899BB2A888834206D206EB460E4FEA8E03454A134418812B784448C35CDBB26878834227
:4014800046D195F802C0DFF8FCE04B000B4498000EEB000383F804C0EB780EF80030EB7803F0030395F90200002813DA012B02D14FF0070901E04FF00D09DFF8C8E04B00BE
:4014C00003EB010C4FEA8C00704480F805900121417012E0012B02D14FF0050901E04FF00909DFF8A0E04B0003EB010C4FEA8C00704480F8059000214170AB790A2B01D009
:40150000022B05D1524631462846FFF74BFB824608350134E4B2BC4295D30136F6B2082E8DD9D8F80C0000220CE0837803F07F0310F8084B03EB43039900124B19448C7204
:401540000132D2B2BA42F0D3FFF71EFF124B1860002301210FE00B4D4A00501884002C44E380228992B213449BB203F0010213449BB20131C9B20829EDD9FFF705FEBDE809
:40158000F08700BFD881FF1F4482FF1FB881FF1FD381FF1FD581FF1FCC81FF1F08B5154B1B7903F07F035A1ED2B2072A20D8590019448A0010490A44917841F00101917083
:4015C0000021D170517841F002015170127912F0800F05D01B01094A1A448D23937004E01B01064A1A4489239370FFF7AFFB08BD002008BD00600040D881FF1FFC5F004001
:40160000274B1B7903F07F035A1ED2B2072A44D810B5590019448A0022490A44917801F0FE0191700021D1701F4C1801215C01F07F012154517801F0FD015170127912F0DF
:40164000800F13D003EB43018A0016490A445278D2B2012A04D1224602440C23937019E01B01114A1A440D23937013E003EB43018A000C490A445278D2B2012A05D11B01A3
:40168000094A1A440823937004E01B01064A1A4409239370FFF75AFB10BD0020704700BF00600040D881FF1FFC5F004010B50E4B1C79E4B20D4B18780138C0B2FFF7B6FD89
:4016C00043681B799C4201D9022C0AD8084A135DDBB208490B55044B9B78DBB21355012010BD002010BD00BF00600040D381FF1F4482FF1FB881FF1F10B59C4B1B78DBB2D9
:4017000000219B4A118013F0800F00F0AD80974A5278D2B20A2A00F27481DFE812F06900720172017201720172010B007201920072019A008D4BDB78DBB2012B09D1FFF7D7
:4017400017FE42688A4B5A6012221A80FFF740FC10BD864BDB78DBB2022B13D1834B9878FFF764FD002800F04E814268804B5A605A68D1785A68927842EA01221A80FFF78B
:4017800027FC10BD794BDB78DBB2032B05D02CE00A7811440133DBB201E000237549734A9278D2B2934203D20A7812F0FF0FEFD16E4B9B7813F0FF0F0BD06C4B9B78DBB2D6
:4017C0006D4A127C934204D16C4C2046FFF7A6FC21460B7813F0FF0F00F017810B78644A13805160FFF7F4FB10BD00F0B1FA10BD13F0030317D0022B40F009815C490B802B
:401800005A4B1B7903F07F0303EB43039A005C4B1A449278D2B25B4B1A7000225A704B60FFF7D6FB10BD524902230B80564B1A78D2B2544B1A7000225A704B60FFF7C8FBC3
:4018400010BD4B4B01221A80504A5A60FFF7C0FB10BD474A01231380444B1B794C490B445360FFF7B5FB10BD404A5278013A0A2A00F2CF80DFE812F04C00CD009800CD00B6
:401880000B00CD00CD00CD001300CD003000374B9B78DBB23F4A1370FFF758FA10BD334B9B7803F0FF041BB1601EC0B2FFF7BEFC04B110B9002C40F0AE80344B1B78DBB2C9
:4018C0009C4206D0314B1C700120334B1870FFF76FFDFFF73BFA10BDFFF7E8FE002800F09C80224A1379DBB21279D2B22B490A702B4AD25CD2B22649CB5CDBB29A4204D01F
:401900000122254B1A70FFF7A5FCFFF71FFA10BD03F00303012B17D04BB1022B7FD1134B9B7813F0FF0F7CD1FFF76AFE10BD0F4B9B78DBB2012B76D1134A137803F0FD0350
:401940001370FFF703FA10BD084B1B79DBB2012B6BD8064B98781B79DBB21249CA5C22EA0002CA54FFF7F2F910BD00BF00600040BC81FF1F7C1F0000602000004C82FF1FA3
:40198000D881FF1F9481FF1FD581FF1FD381FF1F4482FF1FD281FF1FD081FF1FC881FF1FB881FF1F4882FF1F03F00303012B17D04BB1022B3BD1224B9B7813F0FF0F38D152
:4019C000FFF7ECFD10BD1E4B9B78DBB2012B32D11C4A137843F002031370FFF7B7F910BD174B1B79DBB2012B27D8154B98781B79DBB21549CA5C22EA0002CA54FFF7A6F960
:401A000010BD002010BD002010BD002010BD002010BD002010BD002010BD002010BD002010BD002010BD002010BD002010BD002010BD002010BD002010BD002010BD00BF37
:401A400000600040D581FF1F4882FF1F044B1B7813F0800F01D0024B5B780020704700BF00600040024B1878C0F38010704700BF8F45004010B50B4C237803F09F03237046
:401A8000237803F0F00323702378184340F0100020700120FEF734FD237803F0EF03237010BD00BF2051004038B505460E4C237843F020032370237803F0BF03237000209C
:401AC000FEF71EFD237803F0F003237023781D4345F0100525700120FEF712FD237803F0EF03237038BD00BF2051004070B5354B1A7802F08002D2B21A7033490A7802F0A2
:401B0000F00242F00F020A7001310A7802F0F0020A7001310A7802F0F0020A701A7802F0DF021A701A7842F040021A704FF4CA760020FEF7E5FC234D2B7843F010032B70E6
:401B40000120FEF7DDFC214B1C78E4B22B7803F0EF032B700020FEF7D3FC04F00804E4B22B7843F010032B700120FEF7C9FC2B7803F0EF032B7014B90A20FEF7C1FC013ED9
:401B80000CB1002ED4D10F4A137803F0BF031370137803F08003DBB213700232137803F0F00313700132137803F0F00343F00F0313700132137803F0F00343F00F03137068
:401BC00070BD00BF20510040225100402151004010B50446FFF78AFF2009FFF765FF04F00F00FFF761FF10BD38B505460078012404E0FFF7EDFF285D0134E4B20028F8D1D0
:401C000038BD00BF08B5FFF7E3FF08BD10B50446FFF76CFF2009FFF72DFF04F00F00FFF729FF10BD08B52820FEF754FC0320FFF721FF0520FEF74EFC0320FFF71BFF0F20A4
:401C4000FEF748FC0320FFF715FF0120FEF742FC0220FFF70FFF0520FEF73CFC0620FFF7D5FF0E20FFF7D2FF2C20FFF7CFFF0820FFF7CCFF0120FFF7C9FF0C20FFF7C6FF8E
:401C80000320FFF7C3FF0520FEF724FC08BD00BF08B50C20FFF7BAFF0122014B1A7008BD9681FF1F08B5054B5B7823B9FFF7BAFF0122024B5A70FFF7EBFF08BD9681FF1F81
:401CC00008B5032819D8DFE800F002070D1381F08000FFF79BFF08BDA1F14000C0B2FFF795FF08BDA1F16C00C0B2FFF78FFF08BDA1F12C00C0B2FFF789FF08BD044A13784D
:401D000003F0FB03800000F0040018431070704760510040044A137803F0F703C00000F0080018431070704760510040000000000230800803D000BF01380046FCD170476B
:401D4000EFF3108072B6704780F31088704700BF08B5144B1B7803F00303012B02D0022B04D00FE00F4B1B79DBB20CE00D4B1B7903F07F0303EB43039A000B4B1A44937AA4
:401D8000DBB200E00023022B07D8084A1268D35C022B04D1FEF72EFE08BD002008BD002008BD00BF00600040D881FF1FCC81FF1F014B1868704700BF6881FF1F0E4B70B5D2
:401DC0001E460E4C0025E41AA410A54204D056F8253098470135F8E700F04CF9084B094C1E46E41AA4100025A54204D056F8253098470135F8E770BD802000008020000025
:401E0000802000008820000010B5431E0A44914204D011F8014B03F8014FF8E710BD03460244934202D003F8011BFAE7704710F8012B11F8013B012A28BF9A42F7D0D01AF6
:401E4000704700000000000050617373776F7264204D617463683A004C6F636B206973206F70656E2020202020000000416363657373206772616E7465640000496E766135
:401E80006C69642050617373776F7264000000004163636573732064656E696564000000456E74657220436F72726563742020200000000050617373776F72642020202078
:401EC00020202020202020202020202020000000005100401000305100403000C0510040100000000140001000140140000800400140000A004C01400002005001402000D6
:401F00003031323334353637383941424344454600000000010000001C1F00000100000060200000000000000000000001000000341F0000010000001C20000003000000AE
:401F4000601F000000000000000000000000000000000000000000005C1F0000020A000000008103080002000100820240000A000100030240000A00020300000403090495
:401F80002C0343007900700072006500730073002000530065006D00690063006F006E0064007500630074006F0072001003550053004200550041005200540038034300D3
:401FC00044004300200043006F006D006D0075006E00690063006100740069006F006E00200049006E007400650072006600610063006500260343004400430020004400DC
:40200000610074006100200049006E0074006500720066006100630065000000090243000201018032090400000102020103052400100104240202052406000105240100DF
:40204000010705810308000A09040100020A0000040705820240000007050302400000001201000202000008B40432F20100010280014300F8B500BFF8BC08BC9E4670473C
:402080004D00000069040000F8B500BFF8BC08BC9E46704729000000A8200000C880FF1FA8000000000100000000000031323334230000002A2A2A2A2A0000000000E02E1A
:4020C000C05D00001800000000366E0100C2010000000800C201000000080000A12000000000020000000000000000000000000000000000000000000000000000000000AD
:40210000000000000000000072200000000000000000000000000000000000000000000000000000000000000000000000000000000000000000000000000000000000000D
:4021400000000000000000000881FF1F00000000000000000000000000000000000000000000000000000000000000000000000000000000000000000000000000000000B8
:40218000000000000000000000000000000000000000000000000000000000000000000000000000000000000000000000000000000000000000000000000000000000001F
:4021C00000000000000000000000000000000000000000000000000000000000000000000000000000000000000000000000000000000000000000000000000000000000DF
:40220000000000000000000000000000000000000000000000000000000000000000000000000000000000000000000000000000000000000000000000000000000000009E
:40224000000000000000000000000000000000000000000000000000000000000000000000000000000000000000000000000000000000000000000000000000000000005E
:020000040003F7
:0200000480007A
:4000000001450040015200400217014002190140034001400341014003420140034301400447014004480140024C0140015101407E027C40EA02EE0AEA02EE0A3381364072
:40004000CC709F01A640A7809F01A640A7809F01A640A78008080B040F40C20EAE40AF81EA40EE50AC08AF44002A00004000000000000000C0000000000B0B000000000092
:40008000007F7F0000000000000C0C00000000000000000000000000000000000000000000000000000000000000000000000000000000000000000000000000000000002A
:4000C0000000000000000000000000000000000000000000000000000000000000000000000000000000000000000000000000000000000000000000000000000000000000
:4001000000000000000000000000000000000000000000000000000000000000000000000000000000000000000000000000000000000000000000000000000000000000BF
:40014000000000000000000000000000000000000000000000000000000000000000000000000000000000000000000000000000000000000000000000000000000000007F
:40018000000000000000000000000000000000000000000000000000000000000000000000000000000000000000000000000000000000000000000000000000000000003F
:0200000490006A
:0400000000004005B7
:0200000490105A
:04000000BC90ACAF55
:0200000490303A
:020000003EB30D
:0200000490402A
:4000000000000000000000000000000000000000000000000000000000000000000000000000000000000000000000000000000000000000000000000000000000000000C0
:400040000000000000000000000000000000000000000000000000000000000000000000000000000000000000000000000000000000000000000000000000000000000080
:400080000000000000000000000000000000000000000000000000000000000000000000000000000000000000000000000000000000000000000000000000000000000040
:4000C0000000000000000000000000000000000000000000000000000000000000000000000000000000000000000000000000000000000000000000000000000000000000
:0200000490501A
:0C00000000012E12306900012E1E6F1C42
:00000001FF